{
  "_format": "hh-sol-artifact-1",
  "contractName": "WorldGate",
  "sourceName": "src/WorldGate.sol",
  "abi": [
    {
      "inputs": [],
      "stateMutability": "nonpayable",
      "type": "constructor"
    },
    {
      "anonymous": false,
      "inputs": [
        {
          "indexed": true,
          "internalType": "address",
          "name": "agent",
          "type": "address"
        },
        {
          "indexed": false,
          "internalType": "uint256",
          "name": "expiresAt",
          "type": "uint256"
        },
        {
          "indexed": false,
          "internalType": "uint256",
          "name": "feePaid",
          "type": "uint256"
        }
      ],
      "name": "Entered",
      "type": "event"
    },
    {
      "anonymous": false,
      "inputs": [
        {
          "indexed": true,
          "internalType": "address",
          "name": "agent",
          "type": "address"
        },
        {
          "indexed": false,
          "internalType": "uint256",
          "name": "newExpiresAt",
          "type": "uint256"
        }
      ],
      "name": "Extended",
      "type": "event"
    },
    {
      "anonymous": false,
      "inputs": [
        {
          "indexed": false,
          "internalType": "uint256",
          "name": "oldFee",
          "type": "uint256"
        },
        {
          "indexed": false,
          "internalType": "uint256",
          "name": "newFee",
          "type": "uint256"
        }
      ],
      "name": "FeeUpdated",
      "type": "event"
    },
    {
      "inputs": [],
      "name": "enter",
      "outputs": [],
      "stateMutability": "payable",
      "type": "function"
    },
    {
      "inputs": [
        {
          "internalType": "address",
          "name": "",
          "type": "address"
        }
      ],
      "name": "entries",
      "outputs": [
        {
          "internalType": "uint256",
          "name": "enteredAt",
          "type": "uint256"
        },
        {
          "internalType": "uint256",
          "name": "expiresAt",
          "type": "uint256"
        },
        {
          "internalType": "bool",
          "name": "isActive",
          "type": "bool"
        }
      ],
      "stateMutability": "view",
      "type": "function"
    },
    {
      "inputs": [],
      "name": "entryDuration",
      "outputs": [
        {
          "internalType": "uint256",
          "name": "",
          "type": "uint256"
        }
      ],
      "stateMutability": "view",
      "type": "function"
    },
    {
      "inputs": [],
      "name": "entryFee",
      "outputs": [
        {
          "internalType": "uint256",
          "name": "",
          "type": "uint256"
        }
      ],
      "stateMutability": "view",
      "type": "function"
    },
    {
      "inputs": [],
      "name": "extend",
      "outputs": [],
      "stateMutability": "payable",
      "type": "function"
    },
    {
      "inputs": [
        {
          "internalType": "address",
          "name": "agent",
          "type": "address"
        }
      ],
      "name": "getEntry",
      "outputs": [
        {
          "internalType": "uint256",
          "name": "enteredAt",
          "type": "uint256"
        },
        {
          "internalType": "uint256",
          "name": "expiresAt",
          "type": "uint256"
        },
        {
          "internalType": "bool",
          "name": "isActive",
          "type": "bool"
        }
      ],
      "stateMutability": "view",
      "type": "function"
    },
    {
      "inputs": [
        {
          "internalType": "address",
          "name": "agent",
          "type": "address"
        }
      ],
      "name": "isActiveEntry",
      "outputs": [
        {
          "internalType": "bool",
          "name": "",
          "type": "bool"
        }
      ],
      "stateMutability": "view",
      "type": "function"
    },
    {
      "inputs": [],
      "name": "owner",
      "outputs": [
        {
          "internalType": "address",
          "name": "",
          "type": "address"
        }
      ],
      "stateMutability": "view",
      "type": "function"
    },
    {
      "inputs": [
        {
          "internalType": "uint256",
          "name": "newFee",
          "type": "uint256"
        }
      ],
      "name": "setEntryFee",
      "outputs": [],
      "stateMutability": "nonpayable",
      "type": "function"
    },
    {
      "inputs": [],
      "name": "withdraw",
      "outputs": [],
      "stateMutability": "nonpayable",
      "type": "function"
    }
  ],
  "bytecode": "0x608060405266b1a2bc2ec5000060005562093a8060015534801561002257600080fd5b5033600260006101000a81548173ffffffffffffffffffffffffffffffffffffffff021916908373ffffffffffffffffffffffffffffffffffffffff160217905550610dc9806100736000396000f3fe6080604052600436106100915760003560e01c80638da5cb5b116100595780638da5cb5b1461014c5780639fe4bb4f14610177578063e97dcb62146101b4578063eb770d0c146101be578063f29ee125146101e757610091565b8063072ea61c14610096578063172a27b3146100c15780633ccfd60b146100cb57806357a71523146100e25780637db6a4e41461010d575b600080fd5b3480156100a257600080fd5b506100ab610226565b6040516100b891906109d4565b60405180910390f35b6100c961022c565b005b3480156100d757600080fd5b506100e061047e565b005b3480156100ee57600080fd5b506100f7610579565b60405161010491906109d4565b60405180910390f35b34801561011957600080fd5b50610134600480360381019061012f9190610a52565b61057f565b60405161014393929190610a9a565b60405180910390f35b34801561015857600080fd5b5061016161062c565b60405161016e9190610ae0565b60405180910390f35b34801561018357600080fd5b5061019e60048036038101906101999190610a52565b610652565b6040516101ab9190610afb565b60405180910390f35b6101bc6106ec565b005b3480156101ca57600080fd5b506101e560048036038101906101e09190610b42565b6108af565b005b3480156101f357600080fd5b5061020e60048036038101906102099190610a52565b610984565b60405161021d93929190610a9a565b60405180910390f35b60005481565b600054341015610271576040517f08c379a000000000000000000000000000000000000000000000000000000000815260040161026890610bcc565b60405180910390fd5b600360003373ffffffffffffffffffffffffffffffffffffffff1673ffffffffffffffffffffffffffffffffffffffff16815260200190815260200160002060020160009054906101000a900460ff16610300576040517f08c379a00000000000000000000000000000000000000000000000000000000081526004016102f790610c38565b60405180910390fd5b600042600360003373ffffffffffffffffffffffffffffffffffffffff1673ffffffffffffffffffffffffffffffffffffffff16815260200190815260200160002060010154116103515742610395565b600360003373ffffffffffffffffffffffffffffffffffffffff1673ffffffffffffffffffffffffffffffffffffffff168152602001908152602001600020600101545b9050600154816103a59190610c87565b600360003373ffffffffffffffffffffffffffffffffffffffff1673ffffffffffffffffffffffffffffffffffffffff168152602001908152602001600020600101819055503373ffffffffffffffffffffffffffffffffffffffff167fa29fc12cda82ff659de006abb10fa5ee256d922af1661e395e5f2fb6b004387e600360003373ffffffffffffffffffffffffffffffffffffffff1673ffffffffffffffffffffffffffffffffffffffff1681526020019081526020016000206001015460405161047391906109d4565b60405180910390a250565b600260009054906101000a900473ffffffffffffffffffffffffffffffffffffffff1673ffffffffffffffffffffffffffffffffffffffff163373ffffffffffffffffffffffffffffffffffffffff161461050e576040517f08c379a000000000000000000000000000000000000000000000000000000000815260040161050590610d07565b60405180910390fd5b600260009054906101000a900473ffffffffffffffffffffffffffffffffffffffff1673ffffffffffffffffffffffffffffffffffffffff166108fc479081150290604051600060405180830381858888f19350505050158015610576573d6000803e3d6000fd5b50565b60015481565b600080600080600360008673ffffffffffffffffffffffffffffffffffffffff1673ffffffffffffffffffffffffffffffffffffffff16815260200190815260200160002060405180606001604052908160008201548152602001600182015481526020016002820160009054906101000a900460ff1615151515815250509050806000015181602001518260400151801561061e5750428360200151115b935093509350509193909250565b600260009054906101000a900473ffffffffffffffffffffffffffffffffffffffff1681565b600080600360008473ffffffffffffffffffffffffffffffffffffffff1673ffffffffffffffffffffffffffffffffffffffff16815260200190815260200160002060405180606001604052908160008201548152602001600182015481526020016002820160009054906101000a900460ff1615151515815250509050806040015180156106e45750428160200151115b915050919050565b600054341015610731576040517f08c379a000000000000000000000000000000000000000000000000000000000815260040161072890610bcc565b60405180910390fd5b61073a33610652565b1561077a576040517f08c379a000000000000000000000000000000000000000000000000000000000815260040161077190610d73565b60405180910390fd5b6040518060600160405280428152602001600154426107999190610c87565b815260200160011515815250600360003373ffffffffffffffffffffffffffffffffffffffff1673ffffffffffffffffffffffffffffffffffffffff168152602001908152602001600020600082015181600001556020820151816001015560408201518160020160006101000a81548160ff0219169083151502179055509050503373ffffffffffffffffffffffffffffffffffffffff167f089d0daa5e8466fdfdab1113e8fdd98c06ef26711cafc429dabce354d007364e600360003373ffffffffffffffffffffffffffffffffffffffff1673ffffffffffffffffffffffffffffffffffffffff16815260200190815260200160002060010154346040516108a5929190610d93565b60405180910390a2565b600260009054906101000a900473ffffffffffffffffffffffffffffffffffffffff1673ffffffffffffffffffffffffffffffffffffffff163373ffffffffffffffffffffffffffffffffffffffff161461093f576040517f08c379a000000000000000000000000000000000000000000000000000000000815260040161093690610d07565b60405180910390fd5b7f528d9479e9f9889a87a3c30c7f7ba537e5e59c4c85a37733b16e57c62df6130260005482604051610972929190610d93565b60405180910390a18060008190555050565b60036020528060005260406000206000915090508060000154908060010154908060020160009054906101000a900460ff16905083565b6000819050919050565b6109ce816109bb565b82525050565b60006020820190506109e960008301846109c5565b92915050565b600080fd5b600073ffffffffffffffffffffffffffffffffffffffff82169050919050565b6000610a1f826109f4565b9050919050565b610a2f81610a14565b8114610a3a57600080fd5b50565b600081359050610a4c81610a26565b92915050565b600060208284031215610a6857610a676109ef565b5b6000610a7684828501610a3d565b91505092915050565b60008115159050919050565b610a9481610a7f565b82525050565b6000606082019050610aaf60008301866109c5565b610abc60208301856109c5565b610ac96040830184610a8b565b949350505050565b610ada81610a14565b82525050565b6000602082019050610af56000830184610ad1565b92915050565b6000602082019050610b106000830184610a8b565b92915050565b610b1f816109bb565b8114610b2a57600080fd5b50565b600081359050610b3c81610b16565b92915050565b600060208284031215610b5857610b576109ef565b5b6000610b6684828501610b2d565b91505092915050565b600082825260208201905092915050565b7f496e73756666696369656e742066656500000000000000000000000000000000600082015250565b6000610bb6601083610b6f565b9150610bc182610b80565b602082019050919050565b60006020820190508181036000830152610be581610ba9565b9050919050565b7f4e6f7420696e20776f726c640000000000000000000000000000000000000000600082015250565b6000610c22600c83610b6f565b9150610c2d82610bec565b602082019050919050565b60006020820190508181036000830152610c5181610c15565b9050919050565b7f4e487b7100000000000000000000000000000000000000000000000000000000600052601160045260246000fd5b6000610c92826109bb565b9150610c9d836109bb565b9250828201905080821115610cb557610cb4610c58565b5b92915050565b7f4e6f74206f776e65720000000000000000000000000000000000000000000000600082015250565b6000610cf1600983610b6f565b9150610cfc82610cbb565b602082019050919050565b60006020820190508181036000830152610d2081610ce4565b9050919050565b7f416c726561647920696e20776f726c6400000000000000000000000000000000600082015250565b6000610d5d601083610b6f565b9150610d6882610d27565b602082019050919050565b60006020820190508181036000830152610d8c81610d50565b9050919050565b6000604082019050610da860008301856109c5565b610db560208301846109c5565b939250505056fea164736f6c6343000814000a",
  "linkReferences": {},
  "deployedLinkReferences": {}
}